:040000007DEF00F0A0
:06000800438263EF19F0D2
:100018004380D8CF94F0E8CF95F0E0CF96F0FACFB0
:1000280097F0FBCF98F0E9CF99F0EACF9AF0E1CFBB
:100038009BF0E2CF9CF0D9CF9DF0DACF9EF0F3CFC2
:100048009FF0F4CFA0F0F6CFA1F0F7CFA2F0F8CF51
:10005800A3F0F5CFA4F043C0A5F044C0A6F045C076
:10006800A7F046C0A8F00F010AA106D0E2EC10F0F4
:1000780068C0C1F069C0C2F00E01CEA306D0C1C0ED
:1000880092F0C2C093F094EC25F00F010ABB36EC55
:1000980022F00F011AB505EC25F0A8C046F0A7C05C
:1000A80045F0A6C044F0A5C043F0A4C0F5FFA3C026
:1000B800F8FFA2C0F7FFA1C0F6FFA0C0F4FF9FC0E1
:1000C800F3FF9EC0DAFF9DC0D9FF9CC0E2FF9BC032
:1000D800E1FF9AC0EAFF99C0E9FF98C0FBFF97C00B
:1000E800FAFF96C0E0FF95C0E8FF94C0D8FF4390A0
:0600F8001000BDEF19F03D
:100F000000E204C40900D7500DEC1BF04BEC1DF0BF
:100F1000CEEC25F054EC0FF0520E0101366F2B0E83
:100F20000101356F000EE82EFED7352FFCD7362F86
:100F3000FAD700F0000E0801C36F000EC26F08015F
:100F4000C35113E1C00E0801C25DD8B00ED0000E2F
:100F50000801C225D96E080E0801C321DA6EFF0E02
:100F6000DF6E0801C24BC32BEAD7D00E0101356FEB
:100F7000C90EE82EFED7352FFCD700D0000E010198
:100F8000136F000E126FA60E0101146F87EC24F090
:100F9000D00E0101356FC90EE82EFED7352FFCD7D4
:100FA00000D0110E0101126FA60E7EEC25F0080193
:100FB000C16F000E0801C56F020EC46F0801C5BFE6
:100FC00008D00801C551F5E1030E0801C45DD8B091
:100FD000F0D7000E0101136F030E126F020E08010D
:100FE000C4190801C511D8A402D0010E01D0000E09
:100FF000A60DF3CF35F10801C4050801C511D8A429
:1010000002D0010E01D0000EA00DF3CF36F1080181
:10101000C4510801C511D8A402D0010E01D0000EA0
:10102000BE0DF35001013625010135250101146F74
:1010300087EC24F0D00E0101356FC90EE82EFED7E3
:10104000352FFCD700D0020E0801C4190801C511C4
:10105000D8A402D0010E01D0000EA60DF3CF35F1B9
:101060000801C4050801C511D8A402D0010E01D0A1
:10107000000EA00DF3CF36F10801C4510801C511CF
:10108000D8A402D0010E01D0000EBE0DF350010114
:1010900036250101352501010F6F010E0101106F89
:1010A000FF0E38EC25F0D00E0101356FC90EE82E89
:1010B000FED7352FFCD700D0000E0101136F000EB4
:1010C000126F020E0801C4190801C511D8A402D07C
:1010D000010E01D0000EA60DF3CF35F10801C405B5
:1010E0000801C511D8A402D0010E01D0000EA00D38
:1010F000F3CF36F10801C4510801C511D8A402D0BC
:10110000010E01D0000EBE0DF35001013625010184
:1011100035250101146F87EC24F0D00E0101356FE5
:10112000C90EE82EFED7352FFCD700D0000E0101E6
:10113000066F080E0101076F000E0101096FBF0E57
:10114000086F020E0801C4190801C511D8A402D005
:10115000010E01D0000EA60DF3CF35F10801C40534
:101160000801C511D8A402D0010E01D0000EA00DB7
:10117000F3CF36F10801C4510801C511D8A402D03B
:10118000010E01D0000EBE0DF35001013625010104
:10119000352501010A6F000E01010B6F6AEC15F095
:1011A000D00E0101356FC90EE82EFED7352FFCD7C2
:1011B00000D0000E0101136F030E126F020E080122
:1011C000C4190801C511D8A402D0010E01D0000E27
:1011D000A60DF3CF35F10801C4050801C511D8A447
:1011E00002D0010E01D0000EA00DF3CF36F10801A0
:1011F000C4510801C511D8A402D0010E01D0000EBF
:10120000BE0DF35001013625010135250101146F92
:1012100087EC24F0D00E0101356FC90EE82EFED701
:10122000352FFCD700D0020E0801C4190801C511E2
:10123000D8A402D0010E01D0000EA60DF3CF35F1D7
:101240000801C4050801C511D8A402D0010E01D0BF
:10125000000EA00DF3CF36F10801C4510801C511ED
:10126000D8A402D0010E01D0000EBE0DF350010132
:1012700036250101352501010F6F000E0101106FA8
:10128000050E38EC25F0D00E0101356FC90EE82EA1
:10129000FED7352FFCD700D0000E0101136F010ED1
:1012A000126F020E0801C4190801C511D8A402D09A
:1012B000010E01D0000EA60DF3CF35F10801C405D3
:1012C0000801C511D8A402D0010E01D0000EA00D56
:1012D000F3CF36F10801C4510801C511D8A402D0DA
:1012E000010E01D0000EBE0DF350010136250101A3
:1012F00035250101146F87EC24F0D00E0101356F04
:10130000C90EE82EFED7352FFCD700D0020E0801FB
:10131000C4190801C511D8A402D0010E01D0000ED5
:10132000A60DF3CF35F10801C4050801C511D8A4F5
:1013300002D0010E01D0000EA00DF3CF36F108014E
:10134000C4510801C511D8A402D0010E01D0000E6D
:10135000BE0DF350010136250101352501010F6F46
:10136000000E0101106FFF0E38EC25F0D00E0101C8
:10137000356FC90EE82EFED7352FFCD700D0020EF0
:101380000801C4190801C511D8A402D0010E01D06A
:10139000000EA60DF3CF35F10801C4050801C511F3
:1013A000D8A402D0010E01D0000EA00DF3CF36F16B
:1013B0000801C4510801C511D8A402D0010E01D002
:1013C000000EBE0DF3500101362501013525010146
:1013D0000F6F010E0101106FFF0E38EC25F0D00EDB
:1013E0000101356FC90EE82EFED7352FFCD700D08E
:1013F000020E0801C4190801C511D8A402D0010EBB
:1014000001D0000EA60DF3CF35F10801C405080187
:10141000C511D8A402D0010E01D0000EA00DF3CF4B
:1014200036F10801C4510801C511D8A402D0010E3B
:1014300001D0000EBE0DF350010136250101352506
:1014400001010F6F020E0101106FFF0E38EC25F045
:10145000D00E0101356FC90EE82EFED7352FFCD70F
:1014600000D0000E0101136F000E126F020E080172
:10147000C4190801C511D8A402D0010E01D0000E74
:10148000A60DF3CF35F10801C4050801C511D8A494
:1014900002D0010E01D0000EA00DF3CF36F10801ED
:1014A000C4510801C511D8A402D0010E01D0000E0C
:1014B000BE0DF35001013625010135250101146FE0
:1014C00087EC24F0D00E0101356FC90EE82EFED74F
:1014D000352FFCD700D0180E0101126F020E080143
:1014E000C4190801C511D8A402D0010E01D0000E04
:1014F000A60DF3CF35F10801C4050801C511D8A424
:1015000002D0010E01D0000EA00DF3CF36F108017C
:10151000C4510801C511D8A402D0010E01D0000E9B
:10152000BE0DF35001013625010135257EEC25F075
:101530000801C16FD00E0101356FC90EE82EFED72C
:10154000352FFCD700D0300E0101126F020E0801BA
:10155000C4190801C511D8A402D0010E01D0000E93
:10156000A60DF3CF35F10801C4050801C511D8A4B3
:1015700002D0010E01D0000EA00DF3CF36F108010C
:10158000C4510801C511D8A402D0010E01D0000E2B
:10159000BE0DF35001013625010135257EEC25F005
:1015A0000801C06FD00E0101356FC90EE82EFED7BD
:1015B000352FFCD700D0000E0101136F030E126F00
:1015C000020E0801C4190801C511D8A402D0010EE9
:1015D00001D0000EA60DF3CF35F10801C4050801B6
:1015E000C511D8A402D0010E01D0000EA00DF3CF7A
:1015F00036F10801C4510801C511D8A402D0010E6A
:1016000001D0000EBE0DF350010136250101352534
:101610000101146F87EC24F0D00E0101356FC90E63
:10162000E82EFED7352FFCD700D0020E0801C419D2
:101630000801C511D8A402D0010E01D0000EA60DDC
:10164000F3CF35F10801C4050801C511D8A402D0B3
:10165000010E01D0000EA00DF3CF36F10801C451E8
:101660000801C511D8A402D0010E01D0000EBE0D94
:10167000F350010136250101352501010F6F000EE0
:101680000101106F010E38EC25F0D00E0101356F0D
:10169000C90EE82EFED7352FFCD700D0290E010148
:1016A000366F960E0101356F7F0EE82EFED7352F6F
:1016B000FCD7362FFAD7000E0101016F010E006F23
:1016C000000E0101036F000E026F64EC16F0290E8C
:1016D0000101366F960E0101356F7F0EE82EFED7A1
:1016E000352FFCD7362FFAD70801C44BC52B08017C
:1016F000C5BF6FD40801C55101E166D45AD4C4EC0A
:101700001CF002EC19F0000120EE02F07951D9260C
:101710007A51DA22DECF81F0DDCF82F0000120EEB7
:1017200004F07951D9267A51DA22DECF7DF0DDCF6F
:101730007EF0000E0001806F000E7F6F000182BFFF
:1017400022D00001825105E11F0E0001815DD8A069
:101750001AD000017D07D8A07E0781C07BF082C02F
:101760007CF000017B1F7C1F7B4B7C2B3C0E00011F
:101770007B250001816F000E00017C210001826F3A
:101780007CEC1EF00CD0000182BF07D0000182511A
:1017900006E11E0E0001815DD8A017EC23F00001C8
:1017A00020EE02F07951D9267A51DA22DE04DE10D9
:1017B000D8A405D0E9EC1BF0A8EC22F010D0000171
:1017C00020EE02F07951D9267A51DA221E0EDE1867
:1017D000DE10D8B404D032EC1CF0A8EC22F00001EA
:1017E00082BF5AD00001825105E10B0E0001815DDC
:1017F000D8A052D0000182BF08D0000182514CE134
:10180000140E0001815DD8B047D00001F60E81278B
:10181000FF0E8223000E0001806F010E7F6F1BD030
:1018200061EC23F0A7D0A0EC1BF0A4D0D0EC23F007
:10183000D3EC1FF09FD00FEC1FF0D3EC1FF09AD029
:1018400006EC1EF097D0C9EC1DF094D0C9EC1DF049
:10185000D3EC1FF08FD081C07BF082C07CF0000100
:101860007C51000AD8A4F4D700017B51010AD8B4F6
:10187000D7D7030AD8B4D7D7010AD8B4D7D7070A1D
:10188000D8B4D9D7010AD8B4DBD7020AD8B4DBD789
:101890000E0AD8B4DBD7DCD7000182BF27D0000105
:1018A000825105E1140E0001815DD8A01FD0000116
:1018B00082BF08D00001825119E11E0E0001815D36
:1018C000D8B014D00001EC0E8127FF0E822316EC55
:1018D0001AF0000182BF4ED00001825104E10001E4
:1018E0008105D8A047D01FEC25F044D00001E20EBE
:1018F0008127FF0E8223C8EC20F03CD000017F51ED
:1019000000018011D8A484D086EC23F081D000019E
:101910007F5100018011D8A47BD040EC1FF078D01B
:1019200000017F5100018011D8A472D02AEC21F06F
:101930006FD000017F5100018011D8A469D0DEEC86
:101940001EF066D000017F5100018011D8A460D044
:1019500083EC22F05DD0F2EC22F05AD035EC20F08E
:1019600057D01AEC24F054D097EC20F051D0D3EC9F
:101970001FF04ED081C07BF082C07CF000017C5112
:10198000000AD8A445D000017B51010AD8B4B6D7CB
:10199000030AD8B4BCD7010AD8B4C2D7070AD8B44E
:1019A000C8D7010AD8B4CED7030AD8B4D4D7010A0D
:1019B000D8B4D4D70F0AD8B4D4D7010AD8B4D4D75E
:1019C000030AD8B4D4D724D0ABEC23F050D071ECB8
:1019D0001FF04DD0F9EC20F04AD0ADEC1EF047D00E
:1019E0005EEC22F044D0CDEC22F041D004EC20F0AB
:1019F0003ED0F5EC23F03BD066EC20F038D0A2ECE2
:101A00001FF035D03CEC23F032D057EC1BF02FD038
:101A10007DC07BF07EC07CF000017C51000AD8A420
:101A200026D000017B51010AD8B4CED7030AD8B41E
:101A3000CED7010AD8B4CED7070AD8B4CED7010A78
:101A4000D8B4CED7030AD8B4CED7010AD8B4CED7EB
:101A50000F0AD8B4CED7010AD8B4CED7030AD8B467
:101A6000CED7010AD8B4CED7070AD8B4CED7000152
:101A700020EE06F07951D9267A51DA22180EDE18B6
:101A8000DE10D8A414D0000120EE08F07951D92638
:101A90007A51DA22090EDE18DE10D8A408D048ECFC
:101AA00012F03AEC14F08AEC1DF0DAEC16F00001BA
:101AB00020EE06F07951D9267A51DA22070EDE1887
:101AC000DE10D8A414D0000120EE08F07951D926F8
:101AD0007A51DA22060EDE18DE10D8A408D048ECBF
:101AE00012F03AEC14F08AEC1DF09FEC18F00001B3
:101AF00020EE06F07951D9267A51DA220E0EDE1840
:101B0000DE10D8A41200000120EE08F07951D92689
:101B10007A51DA22060EDE18DE10D8A4120048EC44
:101B200012F06BEC1AF08AEC1DF0DAEC16F08BEC8C
:101B300021F09FEC18F01200FF0E00017525000146
:101B4000836FFF0E000176210001846F000E0001FB
:101B5000866F000E856F000E0001806F010E7F6F93
:101B6000000E00017E6F010E7D6F75C079F076C0AA
:101B70007AF0D890000179377A370001791F7A1FFF
:101B8000794B7A2B00017F51000179250001816F8B
:101B90000001805100017A210001826F7AD1000199
:101BA00083510001712500016B6F00018451000118
:101BB000722100016C6F0001855100017325000145
:101BC0006D6F000186510001742100016E6F77C0B6
:101BD0006FF078C070F07BEC1CF0000185510001C3
:101BE000712500016B6F0001865100017221000117
:101BF0006C6F000183510001732500016D6F0001BE
:101C000084510001742100016E6F77C06FF078C0BD
:101C100070F07BEC1CF085C079F086C07AF0000192
:101C2000791F7A1F794B7A2B0001715100017925B8
:101C300000016B6F0001725100017A2100016C6F8D
:101C4000000183510001732500016D6F0001845173
:101C50000001742100016E6F77C06FF078C070F0E2
:101C60007BEC1CF083C079F084C07AF00001791F0E
:101C70007A1F794B7A2B00017151000179250001FF
:101C80006B6F0001725100017A2100016C6F00013D
:101C900085510001732500016D6F0001865100011F
:101CA000742100016E6F77C06FF078C070F07BEC2C
:101CB0001CF083C079F084C07AF00001791F7A1F8C
:101CC000794B7A2B000171510001792500016B6F6E
:101CD0000001725100017A2100016C6F85C07BF018
:101CE00086C07CF000017B1F7C1F7B4B7C2B00019E
:101CF000735100017B2500016D6F000174510001DB
:101D00007C2100016E6F77C06FF078C070F07BECC3
:101D10001CF085C079F086C07AF00001791F7A1F27
:101D2000794B7A2B000171510001792500016B6F0D
:101D30000001725100017A2100016C6F83C07BF0B9
:101D400084C07CF000017B1F7C1F7B4B7C2B00013F
:101D5000735100017B2500016D6F0001745100017A
:101D60007C2100016E6F77C06FF078C070F07BEC63
:101D70001CF0000185510001712500016B6F00010D
:101D800086510001722100016C6F83C079F084C01C
:101D90007AF00001791F7A1F794B7A2B0001735179
:101DA0000001792500016D6F0001745100017A2155
:101DB00000016E6F77C06FF078C070F07BEC1CF0A4
:101DC000000183510001712500016B6F00018451F6
:101DD0000001722100016C6F85C079F086C07AF035
:101DE0000001791F7A1F794B7A2B00017351000192
:101DF000792500016D6F0001745100017A21000105
:101E00006E6F77C06FF078C070F07BEC1CF0000153
:101E1000815100018211D8A410D00001854B862B7E
:101E200000017D510001812700017E5100018223C4
:101E3000020E00017D27000E7E230001815100016A
:101E40008211D8B426D000018307D8A08407020EDF
:101E500000017F27000E802375C079F076C07AF0EC
:101E60000001791F7A1F794B7A2BD89000017937BE
:101E70007A3700017F51000179270001805100016C
:101E80007A23000179510001812700017A51000174
:101E90008223000185510001835D0001865100010C
:101EA0008459D8A012007BD6CF0E0001D76F2B0E1D
:101EB000D66F000E0101346F020E336F010134BF83
:101EC0000AD00101345106E1030E0101335DD8B09F
:101ED000120001D01200000E0101136F030E126FE9
:101EE000020E0101331901013411D8A402D0010EF0
:101EF00001D0000EA60DF3CF17F10101330501014A
:101F00003411D8A402D0010E01D0000EA00DF3CFE1
:101F100018F10101335101013411D8A402D0010E8E
:101F200001D0000EBE0DF350010118250101172547
:101F30000101146F87EC24F0150E0101176FC60E16
:101F4000E82EFED7172FFCD700F0020E010133193F
:101F500001013411D8A402D0010E01D0000EA60D4B
:101F6000F3CF17F10101330501013411D8A402D0D8
:101F7000010E01D0000EA00DF3CF18F10101335175
:101F800001013411D8A402D0010E01D0000EBE0D03
:101F9000F350010118250101172501010F6F000EF3
:101FA0000101106F010E38EC25F0150E0101176FBD
:101FB000C60EE82EFED7172FFCD700F0000E010149
:101FC000136F030E126F020E010133190101341158
:101FD000D8A402D0010E01D0000EA60DF3CF17F148
:101FE0000101330501013411D8A402D0010E01D042
:101FF000000EA00DF3CF18F101013351010134118E
:10200000D8A402D0010E01D0000EBE0DF350010184
:102010001825010117250101146F87EC24F0020E29
:102020000101331901013411D8A402D0010E01D0ED
:10203000000EA60DF3CF17F1010133050101341194
:10204000D8A402D0010E01D0000EA00DF3CF18F1DC
:102050000101335101013411D8A402D0010E01D085
:10206000000EBE0DF35001011825010117250101D5
:102070000F6F010E0101106FF00E38EC25F0150EF8
:102080000101176FC60EE82EFED7172FFCD700F000
:10209000000E0101136F000E126F020E01013319C1
:1020A00001013411D8A402D0010E01D0000EA60DFA
:1020B000F3CF17F10101330501013411D8A402D087
:1020C000010E01D0000EA00DF3CF18F10101335124
:1020D00001013411D8A402D0010E01D0000EBE0DB2
:1020E000F35001011825010117250101146F87EC38
:1020F00024F0000E0101326F000E316F01013251E8
:1021000013E1180E0101315DD8B00ED0190E010196
:102110003125D96E010E01013221DA6EFF0EDF6E1C
:102120000101314B322BEAD7150E0101176FC60E94
:10213000E82EFED7172FFCD700F0190E0101066F0D
:10214000010E0101076F000E0101096F180E086FE3
:10215000020E0101331901013411D8A402D0010E7D
:1021600001D0000EA60DF3CF17F1010133050101D7
:102170003411D8A402D0010E01D0000EA00DF3CF6F
:1021800018F10101335101013411D8A402D0010E1C
:1021900001D0000EBE0DF3500101182501011725D5
:1021A00001010A6F000E01010B6F6AEC15F00101CD
:1021B000334B342B010134BF8ED60101345101E180
:1021C00083D612002750281029102A10D8B405D021
:1021D0002706000E285A295A2A5A040E226E000E8B
:1021E000246E070E236E6C0E256E000E266EA20E58
:1021F000D3EC14F0222803E12328D8B490D06CC08B
:102200006AF00F0E00016A176CC06BF000016B3BA7
:102210000F0E6B1700016B510A0D00016A51F32478
:102220000001C56F0001000EF4200001C66F6DC0F3
:102230006AF00F0E00016A176DC06BF000016B3B76
:102240000F0E6B1700016B510A0D00016A51F32448
:102250000001C76F0001000EF4200001C86F6EC0BE
:102260006AF00F0E00016A176EC06BF000016B3B45
:102270000F0E6B1700016B510A0D00016A51F32418
:102280000001C96F0001000EF4200001CA6F6FC089
:102290006AF00F0E00016A176FC06BF000016B3B14
:1022A0000F0E6B1700016B510A0D00016A51F324E8
:1022B0000001CB6F0001000EF4200001CC6F71C053
:1022C0006AF00F0E00016A1771C06BF000016B3BE2
:1022D0000F0E6B1700016B510A0D00016A51F324B8
:1022E0000001CD6F0001000EF4200001CE6F72C01E
:1022F0006AF00F0E00016A1772C06BF000016B3BB1
:102300000F0E6B1700016B510A0D00016A51F32487
:102310000001CF6F0001000EF4200001D06F0F010B
:102320000A91C50E0001686F000E0001696F12006E
:1023300040BE07D0405003E13F04D8A002D0010EB8
:1023400001D0000EFF0A076E073207328D500718C2
:102350007F0B07188D6E3F06D8A04006000E096E51
:1023600040AE11D03B50076E3C50086E010E3B5EF4
:10237000000E3C5A08BE07D0085003E10704D8A05D
:1023800002D0010E096E0950FF0A076E073A074690
:1023900007468D500718BF0B07188D6E000E0A6E8A
:1023A00040BE3CAE11D03750076E3850086E010E5B
:1023B000375E000E385A08BE07D0085003E1070404
:1023C000D8A002D0010E0A6E0A50FF0A076E8F5085
:1023D0000718FE0B07188F6E40BE05D040501DE158
:1023E0003F04D8B01AD03CBE05D03C5016E13B04A7
:1023F000D8B013D038BE05D038500FE13704D8B06C
:102400000CD041C03FF042C040F03DC03BF03EC068
:102410003CF039C037F03AC038F03550335C3450B6
:10242000800A076E3650800A0758D8B002D0010ED5
:1024300001D0000EFF0A086E08468F500818FD0BE9
:1024400008188F6E334A342A030EF66E0F0EF76E9D
:10245000000EF86E0900F550335C3450800A076EA8
:102460000900F550800A0758D8B002D0010E01D0FB
:10247000000E016E026A33C003F034C004F0BBECFE
:1024800025F001C033F002C034F00E01CA9B1200E7
:10249000710E00016A6F000E00016B6F0BEC1DF0F6
:1024A000000E00016C6F010E6B6F000E00016E6F6D
:1024B000090E6D6F710E00016F6F000E0001706FDD
:1024C0007BEC1CF0000E00016C6F020E6B6F000EB7
:1024D00000016E6F090E6D6F710E00016F6F000EBF
:1024E0000001706F7BEC1CF0000E00016C6F030E9E
:1024F0006B6F000E00016E6F090E6D6F710E0001A3
:102500006F6F000E0001706F7BEC1CF0000E00017D
:102510006C6F040E6B6F000E00016E6F090E6D6F15
:10252000710E00016F6F000E0001706F7BEC1CF0EC
:10253000000E00016C6F050E6B6F000E00016E6FD8
:10254000090E6D6F710E00016F6F000E0001706F4C
:102550007BEC1CF0000E00016C6F060E6B6F000E22
:1025600000016E6F090E6D6F710E00016F6F000E2E
:102570000001706F7BEC1CF0000E00016C6F070E09
:102580006B6F000E00016E6F090E6D6F710E000112
:102590006F6F000E0001706F7BEC1CF0000E0001ED
:1025A0006C6F080E6B6F000E00016E6F090E6D6F81
:1025B000710E00016F6F000E0001706F7BEC1CF05C
:1025C000000E00016C6F090E6B6F000E00016E6F44
:1025D000090E6D6F710E00016F6F000E0001706FBC
:1025E0007BEC1CF0120001010F6F0001BD510001D6
:1025F000BE11D8B404D00101056906691200000EAD
:102600000001BE6F010EBD6F17EC26F001010F91A6
:102610000FC101F10101026B09EC26F005C101F1C6
:102620000101026B09EC26F013EC26F0A00EE82E57
:10263000FED717EC26F001010F810FC101F1010156
:10264000026B09EC26F0F6EC25F0000E0101116F8B
:10265000000E106F17D00101105101010825D96E2D
:102660000101115101010921DA6E000E0101026F11
:10267000000E016FCBEC24F001010151DF6E01016E
:10268000104B112BFF0E01010A6FFF0E01010B6FA2
:1026900006C10CF107C10DF101010A5101010C271E
:1026A00001010B5101010D2301010C510101105DCC
:1026B00001011151800A01010E6F01010D51800AC3
:1026C00001010E59D8A0C7D7FF0E01010A6FFF0EF6
:1026D00001010B6F06C10CF107C10DF101010A5197
:1026E00001010C2701010B5101010D2301010C51C6
:1026F00001010825D96E01010D5101010921DA6E90
:10270000000E0101026F010E016FCBEC24F00101FC
:102710000151DF6E13EC26F0000E0001BE6F000EBB
:10272000BD6F000E0101066F010E056F1200000E55
:102730000001706F010E6F6F000E0001726F000ECE
:10274000716F0001725106E1030E0001715DD8B096
:10275000120001D01200000E0001696F010E686FB7
:10276000020E0001711900017211D8A402D0010EED
:1027700001D0000EA60DF3CF6DF000017105000130
:102780007211D8A402D0010E01D0000EA00DF3CF1B
:102790006EF00001715100017211D8A402D0010E37
:1027A00001D0000EBE0DF35000016E2500016D2515
:1027B00000016A6FA9EC24F00001685100016F1755
:1027C000000169510001701771C01DF072C01EF048
:1027D000000E206EC00E1F6EA8EC25F0C60E1D2444
:1027E0000001606F080E1E200001616F000E0001E5
:1027F000636FC00E626F020E000171190001721149
:10280000D8A402D0010E01D0000EA60DF3CF6DF0BA
:102810000001710500017211D8A402D0010E01D08F
:10282000000EA00DF3CF6EF0000171510001721186
:10283000D8A402D0010E01D0000EBE0DF35000014D
:102840006E2500016D250001646F000E0001656FAB
:10285000C1EC17F00001605100016F1700016151D8
:10286000000170170001714B722B0001725101E1E0
:102870006BD71200710E00016A6F000E00016B6FC2
:102880000BEC1DF0000E00016C6F010E6B6F000E63
:1028900000016E6F070E6D6F710E00016F6F000EFD
:1028A0000001706F7BEC1CF0000E00016C6F020EDB
:1028B0006B6F000E00016E6F070E6D6F710E0001E1
:1028C0006F6F000E0001706F7BEC1CF0000E0001BA
:1028D0006C6F030E6B6F000E00016E6F070E6D6F55
:1028E000710E00016F6F000E0001706F7BEC1CF029
:1028F000000E00016C6F040E6B6F000E00016E6F16
:10290000070E6D6F710E00016F6F000E0001706F8A
:102910007BEC1CF0000E00016C6F050E6B6F000E5F
:1029200000016E6F070E6D6F710E00016F6F000E6C
:102930000001706F7BEC1CF0000E00016C6F060E46
:102940006B6F000E00016E6F070E6D6F710E000150
:102950006F6F000E0001706F7BEC1CF0000E000129
:102960006C6F070E6B6F000E00016E6F070E6D6FC0
:10297000710E00016F6F000E0001706F7BEC1CF098
:10298000000E00016C6F080E6B6F000E00016E6F81
:10299000070E6D6F710E00016F6F000E0001706FFA
:1029A0007BEC1CF012000001656F0001BD510001BD
:1029B000BE11D8B403D0226823681200000E0001B3
:1029C000BE6F010EBD6F1FEC26F00001659165C062
:1029D0001EF01F6A0EEC26F022C01EF01F6A0EECDD
:1029E00026F01BEC26F0A00EE82EFED71FEC26F0FA
:1029F0000001658165C01EF01F6A0EEC26F000EC38
:102A000026F0000E0001676F000E666F13D0000104
:102A100066512524D96E000167512620DA6E000E1A
:102A20001F6E000E1E6EE9EC24F01E50DF6E0001DA
:102A3000664B672BFF0E0001606FFF0E0001616F98
:102A400023C062F024C063F00001605100016227DE
:102A50000001615100016323000162510001665DC4
:102A600000016751800A0001646F00016351800A10
:102A700000016459D8A0CBD7FF0E0001606FFF0E94
:102A80000001616F23C062F024C063F00001605157
:102A900000016227000161510001632300016251BE
:102AA0002524D96E000163512620DA6E000E1F6EB8
:102AB000010E1E6EE9EC24F01E50DF6E1BEC26F0BA
:102AC000000E0001BE6F000EBD6F000E236E010EE2
:102AD000226E12000001BD510001BE11D8B410D009
:102AE000000E0101016F000E006F000E0101036F67
:102AF000010E026F64EC16F001010669076912000D
:102B000096AE10D0000E0101016F000E006F000E96
:102B10000101036F010E026F64EC16F001010669FA
:102B200007691200000E0001BE6F010EBD6F000E9E
:102B30000101016F040E006F000E0101036F000E12
:102B4000026F64EC16F017EC26F001010A910AC13D
:102B500001F10101026B09EC26F00BC101F1010149
:102B6000026B09EC26F0000E01010E6F000E0D6FD6
:102B700017D001010D5101010625D96E01010E5139
:102B800001010721DA6EDF5001010C6F01010C51C8
:102B90000101016F026B09EC26F001010D4B0E2BB8
:102BA0000101085101010D5D01010E51800A010171
:102BB0000C6F01010951800A01010C59D8A0D9D725
:102BC00013EC26F0000E0001BE6F000EBD6F000E6C
:102BD0000101076F010E066F12000001615173E1E0
:102BE000110E0001605DD8B01200000163516BE16D
:102BF0000D0E0001625DD8B01200FF0E00016225CB
:102C00001D6EFF0E000163211E6E000E206E240E4D
:102C10001F6EA8EC25F01DC024F01EC025F065C075
:102C20001DF066C01EF0000E206E0C0E1F6EA8EC8C
:102C300025F01D5024261E50252200016051242419
:102C40000001696F00016151252000016A6F69C0B0
:102C50001DF06AC01EF0000E206EC00E1F6EE4EC68
:102C600021F01DC067F01EC068F067C01DF068C08D
:102C70001EF0000E206EC00E1F6EA8EC25F01D5039
:102C80000001695F1E5000016A5BC60E00016025ED
:102C9000D96E080E00016121DA6E64C0DFFF860E76
:102CA00000016025D96E090E00016121DA6E64C051
:102CB000DFFF460E00016025D96E0A0E000161217A
:102CC000DA6E64C0DFFF12000001D4510001D5119B
:102CD000D8A455D00101025101010311D8B412004A
:102CE0004ED0000E426E050E416E000E3E6E050E79
:102CF0003D6E000E3A6E000E396E1200000E426EEE
:102D0000070E416E000E3E6E030E3D6E000E3A6ED3
:102D1000000E396E1200000E426E040E416E000E5F
:102D20003E6E000E3D6E000E3A6E060E396E1200BB
:102D3000000E426E000E416E000E3E6E0A0E3D6E9B
:102D4000000E3A6E000E396E1200000E426E000E3A
:102D5000416E000E3E6E000E3D6E000E3A6E0A0E83
:102D6000396E1200000E426E0A0E416E000E3E6E6B
:102D7000000E3D6E000E3A6E000E396E120000C15C
:102D800004F101C105F101010551000AD8A4EAD7F7
:102D900001010451010AD8B4A4D7030AD8B4AED7AC
:102DA000010AD8B4B8D7070AD8B4C2D7010AD8B430
:102DB000CCD7D8D7710E00016A6F000E00016B6F7F
:102DC0000BEC1DF0000E00016C6F0B0E6B6F000E14
:102DD00000016E6F060E6D6F710E00016F6F000EB9
:102DE0000001706F7BEC1CF0000E00016C6F0C0E8C
:102DF0006B6F000E00016E6F060E6D6F710E00019D
:102E00006F6F000E0001706F7BEC1CF0000E000174
:102E10006C6F0D0E6B6F000E00016E6F060E6D6F06
:102E2000710E00016F6F000E0001706F7BEC1CF0E3
:102E3000000E00016C6F0E0E6B6F000E00016E6FC6
:102E4000060E6D6F710E00016F6F000E0001706F46
:102E50007BEC1CF0000E00016C6F0F0E6B6F000E10
:102E600000016E6F060E6D6F710E00016F6F000E28
:102E70000001706F7BEC1CF0000E00016C6F100EF7
:102E80006B6F000E00016E6F060E6D6F710E00010C
:102E90006F6F000E0001706F7BEC1CF012000001E0
:102EA000D4510001D511D8A453D01F502010D8B44C
:102EB00012004ED0000E426E050E416E000E3E6EA8
:102EC000050E3D6E000E3A6E000E396E1200000EB9
:102ED000426E070E416E000E3E6E030E3D6E000EFA
:102EE0003A6E000E396E1200000E426E040E416EF4
:102EF000000E3E6E000E3D6E000E3A6E060E396EEE
:102F00001200000E426E000E416E000E3E6E0A0E62
:102F10003D6E000E3A6E000E396E1200000E426ECB
:102F2000000E416E000E3E6E000E3D6E000E3A6EBB
:102F30000A0E396E1200000E426E0A0E416E000E2D
:102F40003E6E000E3D6E000E3A6E000E396E12009F
:102F50001DC021F01EC022F02250000AD8A4EBD7D9
:102F60002150010AD8B4A6D7030AD8B4B0D7010AB1
:102F7000D8B4BAD7070AD8B4C4D7010AD8B4CED7C0
:102F8000DAD70001BD510001BE11D8B40ED0000E39
:102F90001E6E000E1D6E000E206E010E1F6E4FEC99
:102FA00017F0000160696169120096AE0ED0000E44
:102FB0001E6E000E1D6E000E206E010E1F6E4FEC79
:102FC00017F00001606961691200000E0001BE6F18
:102FD000010EBD6F000E1E6E040E1D6E000E206EE3
:102FE000000E1F6E4FEC17F01FEC26F000016491ED
:102FF00064C01EF01F6A0EEC26F065C01EF01F6A4A
:103000000EEC26F0000E256E000E246E11D024501A
:1030100000016025D96E255000016121DA6EDF5074
:10302000236E23501E6E1F6A0EEC26F0244A252ABA
:1030300000016251245C2550800A236E0001635117
:10304000800A2358D8A0E3D71BEC26F0000E00011D
:10305000BE6F000EBD6F000E0001616F010E606F4C
:1030600012000001AF510001876F0001B051000153
:10307000886F0001AF4BB02B000188BF1200000128
:10308000885105E1060E0001875DD8A01200C4EC4E
:103090001CF0B8EC21F025C064F026C065F0000EED
:1030A0000001676F0F0E666FBCEC1AF064C089F008
:1030B00065C08AF0B8EC21F025C064F026C065F048
:1030C000000E0001676F0B0E666FBCEC1AF064C057
:1030D0008BF065C08CF0B8EC21F025C064F026C000
:1030E00065F0000E0001676F050E666FBCEC1AF00C
:1030F000010E0001642500018D6F000E00016521A5
:1031000000018E6F8F0E00016A6F000E00016B6F61
:103110000BEC1DF089C071F08AC072F08BC073F0A7
:103120008CC074F08DC075F08EC076F08F0E0001EB
:10313000776F000E0001786F9CEC0DF01200710E9D
:1031400000016A6F000E00016B6F0BEC1DF0000EAA
:1031500000016C6F010E6B6F000E00016E6F040EAC
:103160006D6F710E00016F6F000E0001706F7BECD0
:103170001CF0000E00016C6F020E6B6F000E000160
:103180006E6F040E6D6F710E00016F6F000E000107
:10319000706F7BEC1CF0000E00016C6F030E6B6F08
:1031A000000E00016E6F040E6D6F710E00016F6FE7
:1031B000000E0001706F7BEC1CF0000E00016C6FC4
:1031C000040E6B6F000E00016E6F040E6D6F710EBA
:1031D00000016F6F000E0001706F7BEC1CF0000EA1
:1031E00000016C6F050E6B6F000E00016E6F040E18
:1031F0006D6F710E00016F6F000E0001706F7BEC40
:103200001CF01200000E0001726F010E716F000EB3
:103210000001746F0C0E736F50EC25F0000E00016E
:10322000726F020E716F000E0001746F0C0E736FDF
:1032300050EC25F0000E0001726F030E716F000E4E
:103240000001746F0C0E736F50EC25F0000E00013E
:10325000726F050E716F000E0001746F0C0E736FAC
:1032600050EC25F0000E0001726F060E716F000E1B
:103270000001746F0C0E736F50EC25F0000E00010E
:10328000726F070E716F000E0001746F0C0E736F7A
:1032900050EC25F0000E0001726F090E716F000EE8
:1032A0000001746F0C0E736F50EC25F0000E0001DE
:1032B000726F0A0E716F000E0001746F0C0E736F47
:1032C00050EC25F01200FACF0BF0FBCF0CF0E9CF59
:1032D0000DF0EACF0EF0E1CF0FF0E2CF10F0D9CF32
:1032E00011F0DACF12F0F3CF13F0F4CF14F0F6CFE1
:1032F00015F0F7CF16F0F8CF17F0F5CF18F043C060
:1033000019F044C01AF045C01BF046C01CF00E0175
:10331000CDBF0DEC22F00E01CDBB63EC24F00E010D
:10332000CBB143EC1EF00E01CABB98EC11F01CC0EF
:1033300046F01BC045F01AC044F019C043F018C055
:10334000F5FF17C0F8FF16C0F7FF15C0F6FF14C051
:10335000F4FF13C0F3FF12C0DAFF11C0D9FF10C091
:10336000E2FF0FC0E1FF0EC0EAFF0DC0E9FF0CC095
:10337000FBFF0BC0FAFF43921100460EF66E4C0E97
:10338000F76E000EF86E00EED8F010EE04F00900B3
:10339000F5CFEEFFE550E150FAE108EEC6F012EE8F
:1033A00040F0EE6AE550E150FCE1E250FAE107EE50
:1033B00000F0C80EEE6AE806FDE106EE00F0C80E69
:1033C000EE6AE806FDE105EE00F0C80EEE6AE806DA
:1033D000FDE104EE00F0C80EEE6AE806FDE103EE42
:1033E00000F011EE00F0EE6AE550E150FCE1E25031
:1033F000FAE102EE00F0F70EEE6AE806FDE101EEFA
:1034000037F0320EEE6AE806FDE100EEA9F02B0E71
:10341000EE6AE806FDE100EE27F01C0EEE6AE80613
:10342000FDE143904392000183EF07F0000E00019D
:10343000726F0A0E716F000E0001746F070E736FCA
:1034400050EC25F0000E0001726F0B0E716F000E34
:103450000001746F070E736F50EC25F0000E000131
:10346000726F0C0E716F000E0001746F070E736F98
:1034700050EC25F0000E0001726F0D0E716F000E02
:103480000001746F070E736F50EC25F0000E000101
:10349000726F0E0E716F000E0001746F070E736F66
:1034A00050EC25F0000E0001726F0F0E716F000ED0
:1034B0000001746F070E736F50EC25F0000E0001D1
:1034C000726F100E716F000E0001746F070E736F34
:1034D00050EC25F01200710E00016A6F000E000121
:1034E0006B6F0BEC1DF0000E00016C6F030E6B6F29
:1034F000000E00016E6F060E6D6F710E00016F6F92
:10350000000E0001706F7BEC1CF0000E00016C6F70
:10351000040E6B6F000E00016E6F060E6D6F710E64
:1035200000016F6F000E0001706F7BEC1CF0000E4D
:1035300000016C6F050E6B6F000E00016E6F060EC2
:103540006D6F710E00016F6F000E0001706F7BECEC
:103550001CF0000E00016C6F060E6B6F000E000178
:103560006E6F060E6D6F710E00016F6F000E000121
:10357000706F7BEC1CF01200000E0001696F0001FF
:1035800065AF08D00001646D651FD8B0652B010ED2
:103590000001696F000167AF05D00001666D671F0C
:1035A000D8B0672B0001665100016711D8B426D04E
:1035B000010E0001686F06D00001D89066376737AA
:1035C0000001682B000167AFF7D7000166510001C9
:1035D000645D0001675100016559D8A008D0000161
:1035E00066510001645F000167510001655B0001E5
:1035F000D890673366330001682FE7D7000169511F
:103600000001D8B405D00001646D651FD8B0652BEA
:1036100064C064F065C065F012008D8E0F01119FCB
:10362000889E8D8C0F01119D889C8F800F012191A8
:103630008A908F820F0121938A920F0111918880C5
:103640000F010C810F010B910F01119B888A0F0153
:103650000C8B0F010B8B0F0121958A8A0F011C85A2
:103660000F011B850F0121978A860F0121998A88F6
:10367000140E0E01B86F130E0E01B76F0F0E0E0170
:10368000FA6F100E0E01FB6F0C0E0E01F66F0B0E93
:103690000E01F46F0F01199F898E0A0E0E01FE6F45
:1036A000090E0E01FD6F0F01219F8A8E1200000E80
:1036B0000001726F060E716F000E0001746F020E32
:1036C000736F50EC25F0000E0001726F070E716FE2
:1036D000000E0001746F020E736F50EC25F0000EA7
:1036E0000001726F080E716F000E0001746F020E00
:1036F000736F50EC25F0000E0001726F090E716FB0
:10370000000E0001746F020E736F50EC25F0000E76
:103710000001726F0A0E716F000E0001746F020ECD
:10372000736F50EC25F0000E0001726F0B0E716F7D
:10373000000E0001746F020E736F50EC25F0120042
:10374000000E0001726F060E716F000E0001746FA3
:10375000080E736F50EC25F0000E0001726F070E1B
:10376000716F000E0001746F080E736F50EC25F03E
:10377000000E0001726F080E716F000E0001746F71
:10378000080E736F50EC25F0000E0001726F090EE9
:10379000716F000E0001746F080E736F50EC25F00E
:1037A000000E0001726F0A0E716F000E0001746F3F
:1037B000080E736F50EC25F0000E0001726F0B0EB7
:1037C000716F000E0001746F080E736F50EC25F0DE
:1037D0001200000E0001726F010E716F000E0001E9
:1037E000746F050E736F50EC25F0000E0001726FC0
:1037F000020E716F000E0001746F050E736F50ECB6
:1038000025F0000E0001726F030E716F000E0001B3
:10381000746F050E736F50EC25F0000E0001726F8F
:10382000040E716F000E0001746F050E736F50EC83
:1038300025F0000E0001726F050E716F000E000181
:10384000746F050E736F50EC25F0000E0001726F5F
:10385000060E716F000E0001746F050E736F50EC51
:1038600025F01200000E0001726F0B0E716F000E3A
:103870000001746F050E736F50EC25F0000E00010F
:10388000726F0C0E716F000E0001746F050E736F76
:1038900050EC25F0000E0001726F0D0E716F000EDE
:1038A0000001746F050E736F50EC25F0000E0001DF
:1038B000726F0E0E716F000E0001746F050E736F44
:1038C00050EC25F0000E0001726F0F0E716F000EAC
:1038D0000001746F050E736F50EC25F0000E0001AF
:1038E000726F100E716F000E0001746F050E736F12
:1038F00050EC25F012006BC060F06CC061F06DC040
:1039000062F06EC063F06FC0D9FF70C0DAFFDF50A5
:103910000001646F000E0001666F000E656FEDEC34
:1039200015F06BC060F06CC061F06DC062F06EC0ED
:1039300063F0000120EE01F06F51D9267051DA22B8
:10394000DF500001646F000E0001666F020E656FAC
:10395000EDEC15F06BC060F06CC061F06DC062F012
:103960006EC063F0000120EE02F06F51D926705155
:10397000DA22DF500001646F000E0001666F010E55
:10398000656FEDEC15F01200000E0001766F000E71
:10399000756F000176513CE1030E0001755DD8B0F2
:1039A00037D0000E0001786F000E776F000178515C
:1039B0002BE1C00E0001775DD8B026D075C01DF098
:1039C00076C01EF0000E206EC00E1F6EA8EC25F013
:1039D000C60E0001736F080E0001746F1D500001C8
:1039E00073271E50000174230001775100017325D5
:1039F000D96E0001785100017421DA6E000EDF6E7D
:103A00000001774B782BD2D70001754B762BC1D7AD
:103A100097EC13F01200B8EC21F025C064F026C03A
:103A200065F0000E0001676F6669BCEC1AF00001DA
:103A300064516AC0D9FF6BC0DAFFDF6E000120EE6F
:103A400001F06A51D9266B51DA22B8EC21F025C079
:103A500064F026C065F0000E0001676F6669BCEC7B
:103A60001AF000016451DF6E000120EE02F06A518D
:103A7000D9266B51DA22B8EC21F025C064F026C0BB
:103A800065F0000E0001676F6669BCEC1AF000017A
:103A90006451DF6E1200000E0001C06F000EBF6F98
:103AA000000E426E000E416E000E3E6E000E3D6E28
:103AB000000E3A6E000E396E000E366E000E356E38
:103AC000000E406E000E3F6E000E3C6E000E3B6E10
:103AD000000E386E000E376E000E346E000E336E20
:103AE000D59ED598D590D592D594D596D6501F0B06
:103AF0006009D66ED688D650F00B0609D66EC70E72
:103B0000D46E000ED36ED58E000E0001D56F010E5F
:103B1000D46F1200710E00016A6F000E00016B6F0E
:103B20000BEC1DF0000E00016C6F020E6B6F000EAF
:103B300000016E6F060E6D6F710E00016F6F000E4B
:103B40000001706F7BEC1CF0000E00016C6F030E27
:103B50006B6F000E00016E6F060E6D6F710E00012F
:103B60006F6F000E0001706F7BEC1CF0000E000107
:103B70006C6F040E6B6F000E00016E6F060E6D6FA2
:103B8000710E00016F6F000E0001706F7BEC1CF076
:103B90001200000E0001726F0C0E716F000E00011A
:103BA000746F080E736F50EC25F0000E0001726FF9
:103BB0000D0E716F000E0001746F080E736F50ECE4
:103BC00025F0000E0001726F0E0E716F000E0001E5
:103BD000746F080E736F50EC25F0000E0001726FC9
:103BE0000F0E716F000E0001746F080E736F50ECB2
:103BF00025F0000E0001726F100E716F000E0001B3
:103C0000746F080E736F50EC25F01200000E000167
:103C1000726F0C0E716F000E0001746F0C0E736FDB
:103C200050EC25F0000E0001726F0D0E716F000E4A
:103C30000001746F0C0E736F50EC25F0000E000144
:103C4000726F0E0E716F000E0001746F0C0E736FA9
:103C500050EC25F0000E0001726F0F0E716F000E18
:103C60000001746F0C0E736F50EC25F0000E000114
:103C7000726F100E716F000E0001746F0C0E736F77
:103C800050EC25F01200000E016EFE0E026E635025
:103C900064CF03F0046A03C004F0036A0326000E35
:103CA00004220150032602500422D8900001B335AB
:103CB000D96E0001B435DA6E000ED926030EDA2271
:103CC00003C0DEFF04C0DDFF0001B34BB42B0001D5
:103CD000B4BF0FD00001B45105E1400E0001B35D47
:103CE000D8A007D025EC26F0000E0001B26F010E1F
:103CF000B16F0E01CB911200000E0001726F070E22
:103D0000716F000E0001746F040E736F50EC25F09C
:103D1000000E0001726F080E716F000E0001746FCB
:103D2000040E736F50EC25F0000E0001726F090E47
:103D3000716F000E0001746F040E736F50EC25F06C
:103D4000000E0001726F0A0E716F000E0001746F99
:103D5000040E736F50EC25F01200000E0001726F1C
:103D6000050E716F000E0001746F010E736F50EC41
:103D700025F0000E0001726F060E716F000E00013B
:103D8000746F010E736F50EC25F0000E0001726F1E
:103D9000070E716F000E0001746F010E736F50EC0F
:103DA00025F0000E0001726F080E716F000E000109
:103DB000746F010E736F50EC25F01200000E0001BD
:103DC000726F010E716F000E0001746F0A0E736F37
:103DD00050EC25F0000E0001726F020E716F000EA4
:103DE0000001746F0A0E736F50EC25F0000E000195
:103DF000726F030E716F000E0001746F0A0E736F05
:103E000050EC25F0000E0001726F040E716F000E71
:103E10000001746F0A0E736F50EC25F01200000E53
:103E20000001726F010E716F000E0001746F080EB9
:103E3000736F50EC25F0000E0001726F020E716F6F
:103E4000000E0001746F080E736F50EC25F0000E29
:103E50000001726F030E716F000E0001746F080E87
:103E6000736F50EC25F0000E0001726F040E716F3D
:103E7000000E0001746F080E736F50EC25F01200F5
:103E8000000E0001726F050E716F000E0001746F5D
:103E90000B0E736F50EC25F0000E0001726F060ED2
:103EA000716F000E0001746F0B0E736F50EC25F0F4
:103EB000000E0001726F070E716F000E0001746F2B
:103EC0000B0E736F50EC25F0000E0001726F080EA0
:103ED000716F000E0001746F0B0E736F50EC25F0C4
:103EE0001200000E0001726F0C0E716F000E0001C7
:103EF000746F040E736F50EC25F0000E0001726FAA
:103F00000D0E716F000E0001746F040E736F50EC94
:103F100025F0000E0001726F0E0E716F000E000191
:103F2000746F040E736F50EC25F0000E0001726F79
:103F30000F0E716F000E0001746F040E736F50EC62
:103F400025F01200000E0001726F090E716F000E55
:103F50000001746F010E736F50EC25F0000E00012C
:103F6000726F0A0E716F000E0001746F010E736F95
:103F700050EC25F0000E0001726F0B0E716F000EF9
:103F80000001746F010E736F50EC25F0000E0001FC
:103F9000726F0C0E716F000E0001746F010E736F63
:103FA00050EC25F01200000E0001726F0D0E716FC3
:103FB000000E0001746F080E736F50EC25F0000EB8
:103FC0000001726F0E0E716F000E0001746F080E0B
:103FD000736F50EC25F0000E0001726F0F0E716FC1
:103FE000000E0001746F080E736F50EC25F0000E88
:103FF0000001726F100E716F000E0001746F080ED9
:10400000736F50EC25F01200000E0001726F090E64
:10401000716F000E0001746F030E736F50EC25F08A
:10402000000E0001726F0A0E716F000E0001746FB6
:10403000030E736F50EC25F0000E0001726F0B0E33
:10404000716F000E0001746F030E736F50EC25F05A
:10405000000E0001726F0C0E716F000E0001746F84
:10406000030E736F50EC25F01200000E0001726F0A
:10407000070E716F000E0001746F0A0E736F50EC23
:1040800025F0000E0001726F080E716F000E000126
:10409000746F0A0E736F50EC25F0000E0001726F02
:1040A000090E716F000E0001746F0A0E736F50ECF1
:1040B00025F0000E0001726F0A0E716F000E0001F4
:1040C000746F0A0E736F50EC25F01200000E0001A1
:1040D000726F0D0E716F000E0001746F020E736F20
:1040E00050EC25F0000E0001726F0E0E716F000E85
:1040F0000001746F020E736F50EC25F0000E00018A
:10410000726F0F0E716F000E0001746F020E736FED
:1041100050EC25F0000E0001726F100E716F000E52
:104120000001746F020E736F50EC25F01200000E48
:104130000001726F0D0E716F000E0001746F0A0E98
:10414000736F50EC25F0000E0001726F0E0E716F50
:10415000000E0001746F0A0E736F50EC25F0000E14
:104160000001726F0F0E716F000E0001746F0A0E66
:10417000736F50EC25F0000E0001726F100E716F1E
:10418000000E0001746F0A0E736F50EC25F01200E0
:10419000000E0001726F010E716F000E0001746F4E
:1041A0000B0E736F50EC25F0000E0001726F020EC3
:1041B000716F000E0001746F0B0E736F50EC25F0E1
:1041C000000E0001726F030E716F000E0001746F1C
:1041D0000B0E736F50EC25F0000E0001726F040E91
:1041E000716F000E0001746F0B0E736F50EC25F0B1
:1041F0001200000E0001726F0D0E716F000E0001B3
:10420000746F030E736F50EC25F0000E0001726F97
:104210000E0E716F000E0001746F030E736F50EC81
:1042200025F0000E0001726F0F0E716F000E00017D
:10423000746F030E736F50EC25F0000E0001726F67
:10424000100E716F000E0001746F030E736F50EC4F
:1042500025F01200000E0001726F0A0E716F000E41
:104260000001746F0B0E736F50EC25F0000E00010F
:10427000726F0B0E716F000E0001746F0B0E736F77
:1042800050EC25F0000E0001726F0C0E716F000EE5
:104290000001746F0B0E736F50EC25F0000E0001DF
:1042A000726F0D0E716F000E0001746F0B0E736F45
:1042B00050EC25F01200000E0001606F000E616FDF
:1042C000000E626F000E636F1DA00CD02150000124
:1042D00060272250000161232350000162232450F3
:1042E00000016323D8902136223623362436D89015
:1042F00020321F321E321D321D501E101F10201082
:10430000D8A4E2D760C01DF061C01EF062C01FF0EB
:1043100063C020F01200710E00016A6F000E0001F0
:104320006B6F0BEC1DF0000E00016C6F080E6B6FD5
:10433000000E00016E6F050E6D6F710E00016F6F44
:10434000000E0001706F7BEC1CF0000E00016C6F22
:10435000090E6B6F000E00016E6F050E6D6F710E12
:1043600000016F6F000E0001706F7BEC1CF01200FB
:10437000D8C01DF0D9C01EF0DAC01FF0DBC020F09D
:104380006D0E216E4E0E226EC60E236E410E246EF1
:104390005BEC21F01DC0D8F01EC0D9F01FC0DAF0D0
:1043A00020C0DBF0390E0001D827300ED923000ED3
:1043B000DA23000EDB23FF0E0001DA15256E7F0ED7
:1043C0000001DB15266E1200000E236E000E226E19
:1043D0001F502010D8B41CD0010E216E04D0D890EC
:1043E0001F362036212A20AEFAD7D890223623361F
:1043F0001F501D5C20501E58D8A005D01F501D5EB8
:1044000020501E5A2280D89020321F32212EEDD704
:1044100022C01DF023C01EF0120099CE01F00E0143
:104420009DA304D00E019D990E019D89000E2F249D
:10443000D96E050E3020DA6E01C0DFFF2F4A302A18
:104440000A0E0118D8B404D00D0E0118D8A403D058
:104450000001B54BB62B305004E1C80E2F5CD8A03C
:104460001200000E306E000E2F6E12008DAA03D0C7
:10447000236A232A01D0236A23500001AB6FAC6B5F
:104480000001AB510001AC11D8B40BD0000E1E6E70
:10449000040E1D6E000E206E000E1F6E4FEC17F006
:1044A0000AD0000E1E6E050E1D6E000E206E000E50
:1044B0001F6E4FEC17F00F010A9B1200000E000157
:1044C000726F040E716F000E0001746F030E736F34
:1044D00050EC25F0000E0001726F050E716F000E9A
:1044E0000001746F030E736F50EC25F0000E000195
:1044F000726F060E716F000E0001746F030E736F02
:1045000050EC25F01200000E0001726F0E0E716F5C
:10451000000E0001746F0B0E736F50EC25F0000E4F
:104520000001726F0F0E716F000E0001746F0B0EA1
:10453000736F50EC25F0000E0001726F100E716F5A
:10454000000E0001746F0B0E736F50EC25F012001B
:10455000000E0001726F0E0E716F000E0001746F7D
:10456000010E736F50EC25F0000E0001726F0F0EFC
:10457000716F000E0001746F010E736F50EC25F027
:10458000000E0001726F100E716F000E0001746F4B
:10459000010E736F50EC25F01200000E0001726FD7
:1045A000070E716F000E0001746F030E736F50ECF5
:1045B00025F0000E0001726F080E716F000E0001F1
:1045C000746F030E736F50EC25F0000E0001726FD4
:1045D000090E716F000E0001746F030E736F50ECC3
:1045E00025F01200000E0001726F050E716F000EB3
:1045F0000001746F0A0E736F50EC25F0000E00017D
:10460000726F060E716F000E0001746F0A0E736FE9
:1046100050EC25F0000E0001726F070E716F000E56
:104620000001746F0A0E736F50EC25F01200000E3B
:104630000001726F080E716F000E0001746F040E9E
:10464000736F50EC25F0000E0001726F090E716F50
:10465000000E0001746F040E736F50EC25F0000E15
:104660000001726F0A0E716F000E0001746F040E6C
:10467000736F50EC25F01200000E0001726F010EF6
:10468000716F000E0001746F010E736F50EC25F016
:10469000000E0001726F020E716F000E0001746F48
:1046A000010E736F50EC25F0000E0001726F030EC7
:1046B000716F000E0001746F010E736F50EC25F0E6
:1046C0001200000E0001726F0A0E716F000E0001E1
:1046D000746F0A0E736F50EC25F0000E0001726FBC
:1046E0000B0E716F000E0001746F0A0E736F50ECA9
:1046F00025F0000E0001726F0C0E716F000E0001AC
:10470000746F0A0E736F50EC25F01200000E00015A
:10471000726F070E716F000E0001746F0B0E736FD6
:1047200050EC25F0000E0001726F080E716F000E44
:104730000001746F0B0E736F50EC25F0000E00013A
:10474000726F090E716F000E0001746F0B0E736FA4
:1047500050EC25F01200000E0001726F010E716F17
:10476000000E0001746F030E736F50EC25F0000E05
:104770000001726F020E716F000E0001746F030E64
:10478000736F50EC25F0000E0001726F030E716F15
:10479000000E0001746F030E736F50EC25F01200D1
:1047A000000E0001726F0B0E716F000E0001746F2E
:1047B000090E736F50EC25F0000E0001726F0C0EA5
:1047C000716F000E0001746F090E736F50EC25F0CD
:1047D000000E0001726F0D0E716F000E0001746FFC
:1047E000090E736F50EC25F01200000E0001726F7D
:1047F000020E716F000E0001746F020E736F50ECA9
:1048000025F0000E0001726F030E716F000E0001A3
:10481000746F020E736F50EC25F0000E0001726F82
:10482000040E716F000E0001746F020E736F50EC76
:1048300025F01200000E0001726F0E0E716F000E57
:104840000001746F090E736F50EC25F0000E00012B
:10485000726F0F0E716F000E0001746F090E736F8F
:1048600050EC25F0000E0001726F100E716F000EFB
:104870000001746F090E736F50EC25F01200235085
:104880002410D8B410D0000E0001D56F000ED46FE4
:10489000000E1E6E000E1D6E000E206E010E1F6EAD
:1048A0004FEC17F01200000E0001D56F040ED46F0C
:1048B000000E1E6E040E1D6E000E206E010E1F6E89
:1048C0004FEC17F01200EAEC25F099CF03F09DA20F
:1048D00002D09D989D88000E3124D96E040E32209E
:1048E000DA6E03C0DFFF314A322A0D0E0318D8A456
:1048F00003D00001B74BB82B325004E1C80E315C35
:10490000D8A01200000E326E000E316E120014C1DB
:104910000FF1FE0E0101106FC50E38EC25F00FC12E
:1049200015F110C116F114C10FF1FD0E0101106F48
:104930000101125138EC25F001010F510101151749
:10494000010110510101161715C112F116C113F121
:1049500012006AC066F0FE0E0001676FC50E67ECBC
:1049600025F066C06BF067C06CF06AC066F0FD0EA3
:104970000001676F0001685167EC25F00001665186
:1049800000016B170001675100016C176BC068F0E4
:104990006CC069F01200F6EC25F097860E01CD91FF
:1049A000F6EC25F00E01CDA1FDD792CF03F1010168
:1049B000046B0E01CD91F6EC25F0010101B102D09E
:1049C000979A01D0978A978803C101F104C102F137
:1049D000120000EC26F097860E01CD9100EC26F037
:1049E0000E01CDA1FDD792CF20F0216A0E01CD910D
:1049F00000EC26F01EB002D0979A01D0978A9788D3
:104A000020C01EF021C01FF012008FA403D0256A21
:104A1000252A01D0256A25500001606F616B0001D5
:104A2000605100016111D8A402D0010E01D0000E26
:104A3000236E246A3FEC24F00F011A951200000E39
:104A40000001726F0F0E716F000E0001746F080E7F
:104A5000736F50EC25F0000E0001726F100E716F35
:104A6000000E0001746F080E736F50EC25F01200F9
:104A70000101116F110E0101066F010E0101076F97
:104A8000000E0101096F010E086F0FC10AF110C17C
:104A90000BF16AEC15F006C10FF107C110F112001D
:104AA00000017569000176690001776971C06BF0DA
:104AB00072C06CF073C06DF074C06EF0750E0001C2
:104AC0006F6F000E0001706F7BEC1CF01200266E01
:104AD000260E0001606F000E0001616F000E0001E4
:104AE000636F010E626F66C064F067C065F0C1EC71
:104AF00017F060C066F061C067F012000101136F2B
:104B000012C105F1000E0101076F010E066F140EB0
:104B10000101086F010E0101096F01011351F3EC4E
:104B200012F0010114511200DEEC25F01D501E1090
:104B3000D8B403D031EC18F006D092C079F093C00D
:104B40007AF07FEC0BF097EC13F00E01CE9312008D
:104B50001D501F02F3CF21F0F4CF22F01D50200290
:104B6000F35022261E501F02F350222621C01DF0B2
:104B700022C01EF0120001500302F3CF05F0F4CF63
:104B800006F001500402F350062602500302F350CF
:104B9000062605C001F006C002F01200280E966E2F
:104BA000000E976E9F0E936E000E956E8A868A8811
:104BB000000E0001BE6F000EBD6F120027502810BE
:104BC00029102A10D8A402D0010E01D0000E1D6EAB
:104BD0001E6A12000001B7510001B811D8B402D00A
:104BE000010E01D0000E016E026A120095B4FED7CC
:104BF00097CF00F11F0E01010017D8B41200F6D7AD
:104C000095B4FED797CF1DF01F0E1D16D8B4120015
:104C1000F7D7F6EC25F001C192FF120000EC26F068
:104C20001EC092FF1200F6EC25F097841200F6ECFD
:104C300025F09780120000EC26F09784120000EC1B
:0E4C400026F09780120001000000CF901200B5
:020000040020DA
:10000000FF0FFF0FFF0FFF0FFF0FFF0FFF0FFF0F80
:020000040030CA
:0C0000008CD7FFFF9FFFFFDFFFFFFFFF1B
:00000001FF
